:020000040800F2
:100000006807001041020008332F0008072C000881
:10001000312F00088D1400082B3300080000000069
:10002000000000000000000000000000572F000842
:100030004115000800000000552F0008592F000846
:100040005B0200085B0200085B0200085B0200081C
:100050005B0200085B0200085B0200085B0200080C
:100060005B0200085B0200085B0200085B020008FC
:100070005B0200085B0200085B0200085B020008EC
:100080005B0200085B0200085B0200085B020008DC
:100090005B0200085B0200085B0200085B020008CC
:1000A000593000085B0200085B0200085B02000890
:1000B0005B0200085B0200085B0200085B020008AC
:1000C0005B0200085B0200085B0200085B0200089C
:1000D0005B0200085B0200085B0200085B0200088C
:1000E0005B0200085B0200085B0200085B0200087C
:1000F00071300008653000085B0200085B020008F0
:100100005B0200085B0200085B0200085B0200085B
:100110005B0200085B0200085B0200085B0200084B
:10012000911400085B0200085B0200085B020008F3
:100130005B0200085B0200085B0200085B0200082B
:100140005B0200085B0200085B0200085B0200081B
:100150005B0200085B0200085B0200085B0200080B
:100160005B0200085B0200085B0200085B020008FB
:100170005B0200085B0200085B0200080000000050
:100180005B0200085B02000800F002F800F049F88A
:100190000AA090E8000C82448344AAF10107DA45E2
:1001A00001D100F03EF8AFF2090EBAE80F0013F0EB
:1001B000010F18BFFB1A43F0010318478C400000E1
:1001C000BC400000103A24BF78C878C1FAD8520762
:1001D00024BF30C830C144BF04680C6070470000C1
:1001E0000023002400250026103A28BF78C1FBD840
:1001F000520728BF30C148BF0B607047662903F023
:10020000CA87002070471FB503F0BBFF00F02AFB30
:1002100004000020002103F0F3FAE0601FBD10B5D8
:1002200010BD00F01FFC1146FFF7EDFF03F0AAF927
:1002300000F03DFC03B4FFF7F2FF03BC00F080FCCC
:100240000948804709480047FEE7FEE7FEE7FEE76A
:10025000FEE7FEE7FEE7FEE7FEE7FEE704480549A6
:10026000054A064B70470000053000088901000868
:100270006801001068070010680300106803001090
:100280000FB41CB5074B06AA7B446946009005983D
:1002900000F0CFFA0020694600F0DEFA1CBC5DF8E1
:1002A00014FB0000CD05000070B5044685690068A8
:1002B000C10601D5302600E02026C00707D070BD5A
:1002C000D4E9012130469047206A401C20626D1E0F
:1002D000F6D570BD70B5044685690078C00707D1B2
:1002E00070BDD4E9012120209047206A401C206283
:1002F0006D1EF6D570BD2DE9F0474FF0000A894616
:100300000446C0F820A02046E1688847002876D03F
:10031000252806D0D4E901219047206A401C20629C
:10032000F1E7E168204600258847C4F81CA006468E
:100330000027C4F818A02A2E09D0304603F00FF881
:1003400038B304EB8708303EC8F8186019E059F854
:10035000041B204604EB87029161E1688847012F66
:10036000064618D1E069002820DA25F020051DE0B6
:10037000D8F8180000EB800006EB40003038C8F8D1
:1003800018002046E1688847064602F0E8FF00288A
:10039000EED1012F0AD02E2E08D12046E1688847E1
:1003A0007F1C0646022F45F02005C4DBA06900280B
:1003B00003DA404245F00105A061E80701D025F0CD
:1003C0001005B6B1A6F14100192802D8203645F42F
:1003D00000654A463146204625604D46FFF70EFF30
:1003E00058B1012806D0ED1D25F0070000F10809DD
:1003F00089E704E005F1040985E730468AE7206AC9
:10040000BDE8F08770477047704770472DE9FF4F90
:100410000C461E464FF0FF378BB0D2E90001DDF8E5
:1004200060800A908A46C1F30A5505B93D4600210D
:1004300008464FF00000BAF1000F00F4400005DA62
:1004400000EB80004FF4400101EA50004FEA905960
:10045000B9F1010F00DDB9460A9850EA4A000ED002
:1004600044F61050A5F2FF3545432F14B8F1000FA4
:100470001ED07542291E1EDDC9F100021CE0B8F134
:10048000010F4FF0000001D0302103E0F24305E0FE
:100490002154401CB042FBDB304600220021215495
:1004A0000B99C1F80880C1E900200FB0BDE8F08FBA
:1004B000BD1B6D1CDEE74A4600DA694206A800F063
:1004C0005BFA06AB93E8070003AB83E807005046EE
:1004D0000A9900F03CFB8DE80700A0F500501F389A
:1004E00000900398002D0ADD42F21F014A4608449D
:1004F000002303A90390684600F0A5FD09E0A0F5DC
:1005000000504A461F38002303A90390684600F0B4
:10051000AFFD8DE807000004000C03D04FF0FF3062
:10052000410800E01046B8F1000F03D0002200920D
:1005300015461EE0751E05D400F098F9303262555C
:100540006D1EF9D5B3460122084302D000227F1C5C
:1005500004E02078302801D100227F1E002A09976C
:1005600084D01DE0112D07DA00F080F93032625599
:100570006D1C50EA0102F5D1084302D00098C8B1C1
:100580000EE00021681E05E0235C625C6354225487
:10059000401E491C8142F7DBAB46A81B401E099058
:1005A000002004F80B000B98099AC0F80880C0E9F5
:1005B000002B7AE711264FF0000857E72DE9F04F9E
:1005C00088460446D21D22F0070191B0D1E900010E
:1005D000CDE90A0102F0ABFE02460B98C00F01D034
:1005E0002D2007E02068810701D52B2002E0202183
:1005F00001EAC000032A099001D0072A05DB03465F
:100600004146204600F078F90BE12078800601D5BC
:10061000E06900E00620B8F1650F814606D0B8F128
:10062000660F18D0B8F1670F70D131E00020B9F132
:10063000110F009001DB112301E009F101030AAA67
:1006400001A90CA8FFF7E2FEDDE90C70002609F114
:100650000105834647E001204B4600904FF00047DC
:100660000AAA01A90CA8FFF7D1FEDDE90DB00C998B
:100670005D46002610B909F101000D18B9EB05001F
:1006800003D4C0F1FF3609F10105A5EB09002BE009
:10069000B9F1010F01DA4FF001090020B9F1110F92
:1006A0000090484601DD112300E003460AAA01A993
:1006B0000CA8FFF7ABFEDDE90C704D460026834623
:1006C000207800070AD4AB4500DA5D4601A8012D69
:1006D00004DD411911F8011C302907D04F4502DA19
:1006E00017F1040F04DA012082460FE06D1EEEE7D9
:1006F000002F02DCED1B3E4403E0781CA84200DD25
:100700007D1CB81B00F1010A4FF00047207800075C
:1007100003D4AA4501DB4FF0FF3A0021B7F1004FA7
:100720000DF143088DF8431024D002202B23002F15
:1007300001DA7F422D230A21021EA0F1010000DC14
:100740005FB197FBF1FC97FBF1F201FB1C7C1746B4
:100750000CF1300C08F801CDEEE7A8F101000370B0
:100760002188090501D5452100E06521A0F1010896
:1007700000F8011C09980FA9A1EB0807FF1D00B1A3
:100780000120411901EBEA70A1693844081A401EA2
:10079000A0612078C00602D42046FFF785FD0998A5
:1007A00028B1D4E901219047206A401C20622078BA
:1007B000C00622D52046FFF777FD1EE0002E04DBA1
:1007C000B34502DD01A8805D00E03020D4E90121BD
:1007D0009047206A401C2062761CAAF101005FEA63
:1007E000000A0AD100F03EF8C0680168405CD4E914
:1007F00001219047206A401C2062281EA5F10105B6
:10080000DCDC07E0D4E9012118F8010B9047206AED
:10081000401C2062381EA7F10107F3DC2046FFF7D9
:1008200059FD032011B041E601694A1C02610878B4
:10083000704700B58FB0CDE9013100210591054920
:100840007944CDE9031011466846FFF754FD0FB017
:1008500000BD0000E5FFFFFF0A6802F8010B0A6017
:1008600070470000004870472801001030B5B0F113
:100870000A024FEA900E71F100034EEA817EB0EB5E
:100880000E0061EB91014FEA101E4EEA017E10EB63
:100890000E0041EB11114FEA102E4EEA016E10EBE3
:1008A0000E0041EB11214FEA104E4EEA014E10EBC3
:1008B0000E0041EB1141401841F100014FEAD00018
:1008C00040EA41704FEAD10110EB80054FEA810404
:1008D00044EA907444EB01046D1944EB0404521B88
:1008E000A3414FF0000348BF0A3200D530BD401C81
:1008F00041F1000130BD00002DE9F0411F460446E2
:1009000003260168072A01F4006004DB08B116A57C
:1009100005E016A503E008B115A500E015A521F036
:1009200010002060A069C01EA0610FB1401EA06130
:100930002046FFF7B9FC4FB1D4E901213846904772
:10094000206A401C2062C01C206206E0206AFAE790
:10095000D4E9012115F8010B9047761EF8D2204604
:10096000FFF7B8FCBDE8F0814E414E006E616E00AD
:10097000494E4600696E66002DE9F04781461646ED
:100980008AB0354878440DC88DE80D003248784467
:10099000801C03AC0DC884E80D0041F69B30084470
:1009A000372190FBF1F290FBF1F5A5F1800501FBF9
:1009B00012041B3C02D56442012000E00020DFF855
:1009C00098A080460027FA44AAF1BE0A0EE0E0078C
:1009D0000AD03246684607EB470101230AEB810142
:1009E00000F046FB8DE8070064107F1C002CEED160
:1009F000194F7F44AE3F19E0E80715D007EB04100C
:100A00000DF1180A90E80E008AE80E00C068F04266
:100A100001D1981908903246012306A903A800F0D5
:100A200027FB03AB83E807006D10641C002DE3D1A6
:100A30004FF0010332466946B8F1000F03A802D017
:100A400000F001FB01E000F013FBC9E90001C9F867
:100A500008200AB0BDE8F087A838000000487047B9
:100A6000080100107546FFF7F9FFAE46050069461C
:100A7000534620F00700854618B020B5FFF7EEFB7F
:100A8000BDE820404FF000064FF000074FF000088F
:100A90004FF0000B21F00701AC46ACE8C009ACE810
:100AA000C009ACE8C009ACE8C0098D46704710B574
:100AB0000446AFF300802046BDE81040FFF7BABB04
:100AC0004FF0013C50F8042B51F8043B9A4221D1DD
:100AD000A2EB0C03934313EACC1317D150F8042B69
:100AE00051F8043B9A4215D1A2EB0C03934313EA4D
:100AF000CC130BD150F8042B51F8043B9A4209D186
:100B0000A2EB0C03934313EACC13DBD04FF00000AD
:100B1000704700BFD01A01BAB1FA81F101F0180193
:100B200022FA01F0CB40C1F12001DBB2C0B2C01A01
:100B30002CFA01F3D11A914311EAC311E6D170479F
:100B400001491820ABBEFEE72600020070475FEAAD
:100B5000400C08BF91F0000F4FEA8C234FEAC122EE
:100B600043EA51514FEA1C5018BF00F5F0404FEADC
:100B7000300018BF41F000415FEA6C5C00F0298052
:100B8000BCF1FF3F08BF40F080407047130C06BF28
:100B900012044FF0100C4FF0000C130E04BF1202A1
:100BA0000CF1080C130F04BF12010CF1040C930F8D
:100BB00004BF92000CF1020CD30F04BF52000CF1E1
:100BC000010C11464FF00002A0F11F00A0EB0C0039
:100BD000704711F0004F08BF704731F000413FF4FB
:100BE000D5AF0B0C06BF09044FF0100C4FF0000CF2
:100BF0000B0E04BF09020CF1080C0B0F04BF090116
:100C00000CF1040C8B0F04BF89000CF1020CCB0F0C
:100C100004BF49000CF1010CCCF12003A0EB0C0047
:100C200022FA03F302FA0CF241EA030100F1010097
:100C3000704720F07F4C80EA030023F07F47ACEB45
:100C4000070303F57C5300F0004003F1FF032DE997
:100C500080494FEA154B09B44FEA144325EA0B4E7D
:100C600024EA03480FF2042606EB132749083E78CE
:100C70005FEA320203FB0667C7F5000707FB06F6CB
:100C80004FEA54374FEAD64606F1020607FB066CD8
:100C9000CCF1005C4FEA1C472CEA074C07FB06F43A
:100CA0000CFB06F504EB15464FEA961634BF002000
:100CB0004FF000404FEAD13706FB07FC4FEA1C4CCF
:100CC0000CFB0BF7D21B03FB0CF761EB07010CFBD2
:100CD0000EF7B0EB074072EB17420CFB08F734BF7E
:100CE000A2EB0742B2EB074261EB17414FEA0C441B
:100CF0004FEA910706FB07FC4FEA1C4C0CFB0BF775
:100D0000B0EBC74072EB573203FB0CF734BFA2EBDA
:100D1000C742B2EBC74261EB57310CFB0EF7B0EBA9
:100D2000C70072EB57720CFB08F734BFA2EBC70287
:100D3000B2EBC70261EB5771039F4FEA816141EA51
:100D4000921104EBCC044FEAD1374FEA826206FBE2
:100D500007FC42EA90124FEA80604FEA1C4C0CFB01
:100D60000BF7D21B03FB0CF761EB07010CFB0EF733
:100D7000B0EB074072EB17420CFB08F734BFA2EB55
:100D80000742B2EB074261EB17414FEA8C554FEA3D
:100D9000910704EB9C2406FB07FC4FEA1C4C0CFB60
:100DA0000BF7B0EBC74072EB573203FB0CF734BFC5
:100DB000A2EBC742B2EBC74261EB57310CFB0EF717
:100DC000B0EBC70072EB57720CFB08F734BFA2EB15
:100DD000C702B2EBC70261EB577115EB4C254FEA26
:100DE000816141EA92114FEA82624FEAD13742EAC9
:100DF000901206FB07FC44F100044FEA80604FEAC2
:100E00001C4C0CFB0BF7D21B03FB0CF761EB07012F
:100E10000CFB0EF7B0EB074072EB17420CFB08F728
:100E200034BFA2EB0742B2EB074261EB174115EB6F
:100E30001C154FEA813141EA92414FEA823242EA7F
:100E400090424FEA80304FEA0C7644F1000448EAC1
:100E500003434EEA0B484FF0000EB2EB080C71EB67
:100E6000030724BF624639464EEB0E0E4FF0000BCF
:100E70000018524149414BEB0B0BB2EB080C71EBE4
:100E800003077BF1000B24BF624639464EEB0E0E82
:100E90004FF0000B0018524149414BEB0B0BB2EBEA
:100EA000080C71EB03077BF1000B24BF6246394647
:100EB0004EEB0E0E51EA020718BF46F0010616EB84
:100EC0000E7655F1000254F1000103D5BDE8890109
:100ED000BDE80088BDE88901BDE80048B619524167
:100EE00041EB0101A3F10103704780807F7E7D7C8F
:100EF0007B7A7978777676757473727171706F6EAC
:100F00006E6D6C6C6B6A6A69686867666665646456
:100F1000636362616160605F5F5E5E5D5D5C5C5BE0
:100F20005B5A5A595958585757565655555554544F
:100F3000535352525251515050504F4F4F4E4E4DAD
:100F40004D4D4C4C4C4B4B4B4A4A4A4949494848F9
:100F50004847474747464646454545444444444339
:100F600043434342424242414141002B9C4630D4DC
:100F700077002BD01CB54FEA370703B44FF01000B1
:100F80004FF01001BAF1000F06D0BCF1000FDCBF2A
:100F900040F0080040F008014FF000000FBCBDE831
:100FA00010400BF1010BBBF1010F08BF5FEA1707FF
:100FB00022BF12F1010211F101014FF0004143F192
:100FC000000300F0004043EA00007047F9D35708DF
:100FD000D0E746EA064613F1400F4FEA16461FDDFA
:100FE00013F1200FDFBF16430A46002120335B4276
:100FF000BED0C3F1200746EA064602FA07F74FEAD9
:10100000164646EA0706C3F1200722FA03F201FA60
:1010100007F721FA03F14FF0000342EA0702A7E7BE
:1010200046EA020646EA06464FEA164646EA010640
:10103000BCBF46EA0646360C4FF000034FF00002F4
:101040004FF0000194E72DE9804C9A46934670B426
:1010500091E8380007C831EA400C48BF34EA430C35
:1010600003D5FFF7E6FDFFF780FFF0BCBDE8008C7D
:101070002DE9804C9A46934670B491E8380007C831
:1010800010F0804F08BF13F0804F03D100F005F837
:10109000FFF76BFFF0BCBDE8008C20F07F4780EAD3
:1010A000030023F07F4C07EB0C03A3F57C5300F007
:1010B0000040A3F1FE0392F0000F00F0B38095F022
:1010C000000F00F077802DE901494FEA11404FEA07
:1010D000144621EA004800FB06FC24EA064708FB08
:1010E00006F607FB08F800FB07F718EB06484CEB81
:1010F000164C4FEA124B18EB07484FEA15464CEBDB
:10110000174022EA0B4E0BFB06FC25EA06470EFBB6
:1011100006F607FB0EFE0BFB07F71EEB064E4CEB2D
:10112000164C4FF000061EEB074E4CEB174B18EB1E
:101130000B0840F1000018EB0E0B58EB000840F1D3
:1011400000008F1A4FF000013CBFC943661B14BF5B
:10115000B5EB040C00213CBFC943F61B4FEA174412
:101160004EEA8E0E27EA04454FEA1C4704FB07624D
:101170002CEA074C05FB07F70CFB05F604FB0CFCFF
:1011800016EB074642EB174216EB0C4642EB1C42AD
:101190001BEB060658EB0202414146EA9E0601D5CA
:1011A000BDE80189B619524141EB0101A3F10103E8
:1011B000BDE801894FEA14454FEA114724EA054684
:1011C00021EA074C05FB07F406FB07F70CFB06F1C9
:1011D00005FB0CFC11EB074144EB17444FEA1247A7
:1011E00011EB0C4144EB1C4422EA074C05FB07F2CF
:1011F00006FB07F70CFB06F605FB0CFC16EB074697
:1012000042EB174216EB0C4642EB1C456A1854F1B0
:10121000000148BF7047B619524141EB0101A3F1EB
:101220000103704795F0000F37D04FEA11424FEAA3
:10123000144721EA024624EA074C02FB07F106FBA9
:1012400007F70CFB06F402FB0CFC14EB074441EB24
:1012500017414FEA154714EB0C4441EB1C4125EABA
:10126000074C02FB07F506FB07F70CFB06F602FB33
:101270000CFC16EB074645EB174516EB0C4645EB09
:101280001C42121951F1000148BF7047B619524172
:1012900041EB0101A3F1010370474FEA14454FEA06
:1012A000114724EA054621EA074C05FB07F106FB36
:1012B00007F70CFB06F24FF0000605FB0CFC12EBE7
:1012C000074241EB174112EB0C4251EB1C4148BF66
:1012D0007047921841EB0101A3F10103704710B56B
:1012E0000146806B026C12F0500F05D0806BC26C0F
:1012F000BDE8104008461047016C41F400710164DC
:1013000001688A6812F0405F17D18269AAB9CA6A77
:1013100012F4700F02D08A6852050ED44A6822F087
:1013200020024A60016C21F480710164016CC904DF
:1013300003D4016C41F00101016400F0A9F910BD72
:1013400010B5806B40210164416C41F0040141649F
:1013500000F0A0F910BD10B5806B00F09AF910BD37
:10136000484910B54A6822F440324A604A684368E6
:101370001A434A6001684A6822F480724A60016830
:101380004A68036942EA03224A6001684A6822F017
:1013900040724A6001684A6883681A434A6001687B
:1013A0008A6822F400628A6001688A68C3681A4306
:1013B0008A60816A6FF07062D14201688A6822F0A7
:1013C00070628A6001688A680CD0836A1A438A60F6
:1013D00001688A6822F040528A6001688A68C36A9C
:1013E0001A4301E022F040528A6001688A6822F0C4
:1013F00002028A6001688A68836942EA43028A605D
:10140000016A002901684A6815D042F400624A6006
:1014100001684A6822F460424A6001684B684FF4F0
:101420006044426A94FAA4F4B4FA84F4521EA240CE
:1014300013434B6002E022F400624A600168CA6A0A
:1014400022F47002CA620168CA6A838B0E4C04EBF4
:1014500003531A43CA6201688A6822F400728A60E0
:1014600001688A68036B42EA43228A6001688A68DD
:1014700022F480628A6001688A68406942EA8020BA
:10148000886010BD002301400000F0FFFEE700006F
:10149000014800F011BA0000A800001001681823EC
:1014A000CAB2103AB2FBF3F2054B6FF30901032AFB
:1014B0009B5CC36500D9091D816508467047000023
:1014C0009A41000810B5014600208B698A6A4FF0E6
:1014D000C07453B1B3F5005F15D072B1012A0CD0BE
:1014E000022A0AD0032A09D104E01AB1012A06D03F
:1014F000022A03D1C96AC90100D5012010BDC96AF9
:10150000A142FAD010BD002AF7D0012AF2D0022A57
:10151000F3D0032AF3D010BD30B50468256825F454
:1015200080252560046863608368402B036803D0CE
:1015300099600068C26030BD9A600068C16030BDCB
:101540007047000078B50024009490F83C20012AF0
:1015500019D0012280F83C200A6807250368092A6F
:1015600013D9DE680A3A02EB42029540AE43DE60D0
:101570000A788B680A3A02EB420293400268D56807
:101580002B43D36010E0022078BD1E6902EB4202BB
:101590009540AE431E610A788B6802EB420293408D
:1015A000026815692B4313614A681F25072A13D265
:1015B00003685E6B521E02EB82029540AE435E638F
:1015C0000A8893B20A79521E02EB820293400268A3
:1015D000556B2B43536327E003680D2A12D21E6B11
:1015E000D21F02EB82029540AE431E630A8893B27B
:1015F0000A79D21F02EB820293400268156B2B43DB
:10160000136311E0DE6A0D3A02EB82029540AE43AD
:10161000DE620A8893B20A790D3A02EB82029340A5
:101620000268D56A2B43D362164B0568144A9D4263
:1016300006D10D68122D03D1556845F4800555601B
:1016400005689D4218D10B68102B01D0112B13D1C6
:10165000536843F400035360096810290CD10A4908
:101660000A4A0968B1FBF2F101EB8101490000E08F
:10167000491E00910029FBD180F83C40002078BD34
:101680000023014000200140A400001040420F0050
:1016900070477047704770B504004FF0000603D0E4
:1016A000206C002510B107E0012070BD656484F84E
:1016B0003C50204600F01AF8206CC00610D4206C74
:1016C00020F4885040F0020020642046FFF748FED6
:1016D0006564206C20F0020040F00100206400E00E
:1016E000012684F83C50304670BD0000F0B5064637
:1016F0000068224987B088423ED121480025016810
:1017000041F4807101600068012700F48070009747
:101710000590032469461B48CDE9014500F054FAC1
:10172000FF208DE831006946174800F04DFA009718
:1017300069461648CDE9014500F046FA154C1448B3
:10174000C4E900050015A560C4E9035040006061CC
:101750008000A0614011C4E9070504206062C4E96B
:101760000A752046256300F07BF918B189210AA08B
:1017700001F0DCFDB463A66307B0F0BD00200140BA
:1017800044380240000802400000024000040240C9
:1017900010640240A80000102E2E2F5372632F7386
:1017A000746D3332663478785F68616C5F6D737026
:1017B0002E630000F8B500230446009390F83C0027
:1017C000012807D0012084F83C0020688568ED07D7
:1017D00002D011E00220F8BD856845F00105856062
:1017E0002E482F4D0068B0FBF5F000EB400000E004
:1017F000401E00900028FBD120688568ED074AD084
:10180000256C40F20166B54345F480752564406857
:10181000400505D5206C20F4005040F48050206431
:10182000206CC00404D5606C20F00600606400E009
:10183000636484F83C30A36B1B481A4DD863A36BD8
:101840001A481864A36B1A48D86423686FF0220002
:1018500018602068436843F08063436020688368B1
:1018600043F480738360134620680A46A66B00F138
:101870004C01304600F05EF96868C006206802D06E
:101880000C49884207D1816811F0405F03D181681B
:1018900041F0804181600020F8BD0000A4000010EC
:1018A00040420F0000230140DF12000857130008D8
:1018B00041130008002001402DE9F84304464FF091
:1018C0000008CDF8008064484FF41651A56D0068FB
:1018D000B0FBF1F72E6894F85C00082202FA00F1E0
:1018E000314210D02068016849070CD5016821F009
:1018F0000401016094F85C0002FA00F1A960606DD7
:1019000040F00100606594F85C1054488840304213
:1019100008D021684969090604D5A860606D40F0C7
:10192000020060654D4894F85C10C01C884030424D
:1019300008D021680968890704D5A860606D40F067
:101940000400606594F85C1010208840304218D084
:1019500021680968090714D5A8602068016849034F
:1019600004D50068000308D5A16C07E00168C9052B
:1019700003D4016821F008010160216C09B12046FF
:10198000884794F85C102020884030424FF00106D0
:1019900031D021680968C9062DD5A86094F83500B2
:1019A00005282068016806D0490347D50068000370
:1019B0001DD4616C1CE021F01601016020684169B2
:1019C00021F080014161206C08B9A06C20B1206831
:1019D000016821F00801016094F85C103F20884004
:1019E000A86084F8348084F83560216D1FE0E16BD5
:1019F00009B120468847606D00282BD0606DC00774
:101A000014D0052084F835002068016821F0010118
:101A100001600098401C0090B84203D8206800681C
:101A2000C007F6D184F8348084F83560E16C002971
:101A300010D001B02046BDE8F04308470168C90551
:101A4000D5D4016821F01001016084F8348084F855
:101A50003560CCE7BDE8F883A400001001008000E9
:101A60002DE9F041044600F099F905465CB10026E5
:101A700084F83460022084F835002068016821F081
:101A8000010101600DE00120BDE8F08100F086F960
:101A9000401B052805D920206065032084F8350007
:101AA000F2E720680068C007F0D121680A68204882
:101AB0000240D4E901031843D4E903352B4318430A
:101AC00063691843A3691843E3691843236A1843F9
:101AD0001043626A042A03D1D4E90B231A4310434A
:101AE000086020684069656A20F0070128460D43B8
:101AF000012704280CD1A06A0543E06A40B12046C2
:101B0000FFF7E0FC20B14020606584F83570BAE74B
:101B1000206845612046FFF7C1FC94F85C203F2116
:101B200091408160666584F835700020ACE7000064
:101B30003F8010F02DE9F0410446866D90F83400A6
:101B4000002501280DD0012084F8340094F8357068
:101B50000020012F07D084F8340002252846BDE874
:101B6000F0810220FBE7022784F83570606520468B
:101B7000FFF7D2FC94F85C103F208840B0602068EA
:101B8000016841F0160101602068416941F080015F
:101B90004161206C20B12068016841F008010160BA
:101BA0002068016841F001010160D7E731B500F01C
:101BB000F5F8009C0546601C00D0641C00F0EEF8AF
:101BC000401BA042FAD338BD2DE9F84FDFF88C91C5
:101BD000002209F1040A0AF1040B4FF00F080BF17F
:101BE000040E01260B6896403340B34271D14C6815
:101BF000022C01D0122C11D1D40800EB84073D6ACD
:101C00005407E40E08FA04FC25EA0C05D1F810C0CC
:101C10000CFA04FC4CEA050CC7F820C00768540015
:101C2000032591F804C0A5400CF0030CAF430CFA57
:101C300004FC4CEA070CC0F800C04F68012F05D027
:101C4000022F03D0112F01D0122F11D18768D1F8A4
:101C50000CC0AF430CFA04FC4CEA070CC0F808C0F7
:101C60004768B7430E79C6F3001696403E43466078
:101C7000C668AE438D68A5403543C5604C68E40036
:101C800065D5374C256845F480452560246822F0E9
:101C9000030504F480440094324C2E19D6F80878D9
:101CA0009407250F08FA05F4A7432F4CA04201D151
:101CB000002424E02D4CA04201D101241FE02C4C33
:101CC000A04201D102241AE02A4CA04202D10324EE
:101CD00015E03CE0284CA04201D104240FE0274C41
:101CE000A04201D105240AE0254CA04201D10624DE
:101CF00005E0244CA04201D1072400E00824AC40B8
:101D00003C43C6F80848D9F800404D464E689C430D
:101D1000F60300D51C432C60DAF8004055464E68A7
:101D20009C43B60300D51C432C60DBF800405D46A5
:101D30004E689C43F60200D51C432C60DEF8004040
:101D400075464E689C43B60200D51C432C60521C5D
:101D5000102AFFF446AFBDE8F88F0000003C0140B8
:101D600044380240003001400000024000040240BC
:101D700000080240000C0240001002400014024023
:101D800000180240001C02400069084000D00120F9
:101D900070470AB1816170470904FBE70148006898
:101DA00070470000A000001002480168491C016053
:101DB00070470000A00000100B4810B5016841F406
:101DC00000710160016841F480610160016841F4C3
:101DD00080710160032000F075F8002000F006F823
:101DE00000F018F8002010BD003C024010B5044679
:101DF00007484FF47A710068B0FBF1F000F003FB84
:101E000000222146501E00F03DF8002010BD0000C9
:101E1000A400001010B5032000F054F80022114671
:101E20006FF00B0000F02EF8002211466FF00A0050
:101E300000F028F8002211466FF0090000F022F8A7
:101E400000221146501F00F01DF800221146101FFD
:101E500000F018F800221146901E00F013F800223E
:101E6000BDE810401146501E00F00CB800F01F02F3
:101E7000012191404009800000F1E020C0F80011EC
:101E800070470000F0B40E4B1B68C3F30223C3F18C
:101E90000704042C00D904241D1D072D01D20023A2
:101EA00000E0DB1E012606FA04F56D1E0D409D4084
:101EB0009E40761E164045EA0601F0BC01F03AB895
:101EC0000CED00E0064A00F0070110684FF6FF0332
:101ED000184040EA012003490843106070470000A1
:101EE0000CED00E00000FA052DE9F047DFF85C9109
:101EF00004460E46D9F8000000F00F01F0B280460B
:101F0000B14207D289F80000D9F8000000F00F00B4
:101F1000B04271D120784E4F800705D53868A1684E
:101F200020F0F000084338602078C00756D04849B8
:101F30006068083901281AD002281BD0032819D05C
:101F400009688907002957DA396821F0030101433C
:101F50003960FFF723FF0546606841F288310128A8
:101F600011D002281CD003288A4625D032E0096807
:101F70008903E7E709688901E4E7FFF70FFF411BE1
:101F8000514501D923E08A463868C0F38100012811
:101F9000F3D123E0FFF702FF411B514501D916E0C1
:101FA0008A463868C0F381000228F3D116E0FFF7B3
:101FB000F5FE411B51450AD83868C0F3810003285B
:101FC000F5D10BE0FFF7EAFE411B514502D9032092
:101FD000BDE8F087386810F00C0FF3D1D9F8001085
:101FE000484601F00F01B14208D980F8008000682E
:101FF00000F00F00B04201D00120E9E7207840074F
:1020000005D53868E16820F4E0500843386020784E
:10201000000706D53868216920F4604040EAC10015
:10202000386000F021F83968F02292FAA2F201F04B
:10203000F001B2FA82F2D140064A515CC84006492A
:1020400008600020FFF7D2FE0020C1E7003C0240FC
:1020500008380240A2410008A400001001480068AE
:1020600070470000A400001030B51948006810F057
:102070000C01184812D0441004290ED008290DD1A3
:10208000134A121F1168136801F03F015D0247F601
:10209000C07304D5B4FBF1F003E0204630BDB0FBC3
:1020A000F1F01168194093FAA3F3B3FA83F3D9401E
:1020B000484311684FF4403292FAA2F201F44031E1
:1020C000B2FA82F2D140491C4900B0FBF1F030BDB8
:1020D000083802400024F4002DE9F84F0446007847
:1020E000DFF8F4A2BD4DC00748D0DAF80010504622
:1020F000C1F38101012908D00068C0F381000228E2
:102100000AD1281D0068400206D52868800335D50D
:102110006068002870D031E06068B0F5803F10D072
:10212000B0F5A02F286810D020F4803028602868EF
:1021300020F4802028606068A0B1FFF72FFE0646DB
:102140000CE0286840F48030F4E740F480202860F8
:10215000F7E7FFF723FE801B642873D82868800305
:10216000F7D50BE0FFF71AFE064604E0FFF716FE70
:10217000801B6428F1D828688003F7D42078DFF822
:10218000608280074FF0010B4FF0000943D5DAF869
:102190000010504611F00C0F4FF0F80709D00068FE
:1021A000C0F3810002280BD18B48001F0068400259
:1021B00006D42868800713D5E06801281CD10FE0F9
:1021C000E068D0B1C8F800B0FFF7E8FD064604E0CB
:1021D000FFF7E4FD801B0228BFD828688007F7D5E9
:1021E000286897FAA7F22169B2FA82F220F0F80083
:1021F0009140084328600EE0EBE0C8F80090FFF73C
:10220000CDFD064604E0FFF7C9FD801B022819D862
:1022100028688007F7D42078000722D56E4F7148D0
:1022200061696C3779B1C0F800B0FFF7B7FD0646B9
:1022300004E0FFF7B3FD801B022803D8386880074D
:10224000F7D50EE079E0C0F80090FFF7A7FD06464D
:1022500004E0FFF7A3FD801B02286ED838688007D2
:10226000F7D42078400750D55B483830016841F0FA
:102270008051016000685C4F00F080500090386829
:1022800040F480703860FFF789FD064604E0FFF7F0
:1022900085FD801B022850D83868C005F7D54E4F01
:1022A000A068683701280FD00528386810D020F0C2
:1022B00001003860386820F004003860A068B0B1D0
:1022C000FFF76CFD06460EE0386840F00100F4E7C9
:1022D00040F004003860F7E7FFF760FD811B41F232
:1022E000883081426DD838688007F5D50DE0FFF75A
:1022F00055FD064606E0FFF751FD811B41F288308F
:1023000081425ED838688007F5D4A069F0B3DAF866
:102310000010C1F3810102295BD00228484605D094
:10232000C8F86000FFF73AFD04464DE04746C8F89C
:102330006000FFF733FD064605E042E0FFF72EFDA3
:10234000801B02283DD828688001F7D4D4E9070112
:10235000084347F6C07292FAA2F2616AB2FA82F2B8
:102360009140A26A4FF0FF3303EB52024FF4403327
:1023700093FAA3F3B3FA83F39A4011434FF07062D8
:1023800092FAA2F20843B2FA82F200E01FE0E16A98
:10239000914008431049091F0860C7F860B0FFF773
:1023A000FDFC044604E0FFF7F9FC001B022808D8F6
:1023B00028688001F7D50AE0FFF7F0FC001B02282F
:1023C00002D90320BDE8F88F28688001F4D40020EA
:1023D000F8E70120F6E70000083802400038024024
:1023E00000004742800E4742007000404FF0E0215D
:1023F0000428086903D020F004000861704740F009
:102400000400FAE7704710B5401EB0F1807F01D399
:10241000012010BD4FF0E02460610F21601700F033
:1024200089FD0020A06107202061002010BD10B5AB
:10243000FFF7E8FF10BD7047704730B590F83820BF
:10244000012A20D0012380F83830022280F8392078
:102450000268546824F070045460026854680D687F
:102460002C4354600268946824F0800494600268ED
:10247000946849680C43946080F83930002180F8F2
:102480003810084630BD022030BD10B5040003D01E
:1024900094F8390010B107E0012010BD002084F845
:1024A0003800204600F00CF8022084F83900211D85
:1024B000206800F0E3FD012084F83900002010BD01
:1024C00008B500681E4988420FD11E48016841F4D2
:1024D000803101600068002200F4803000901146D5
:1024E0001820FFF7CFFC182024E01649164A091FD0
:1024F00090420ED1086840F0800008600868002211
:1025000000F08000009011462C20FFF7BBFC2C202F
:1025100010E00E4A904211D1086840F480700860C3
:102520000868002200F48070009011462D20FFF70B
:10253000A9FC2D20BDE80840FFF798BC08BD0000AD
:102540000040014044380240001C00400020004090
:10255000022180F8391001680A6842F001020A601D
:10256000012180F83910002070470168CA6842F0E4
:102570000102CA600068016841F0010101600020A9
:10258000704770B5044690F83800012817D001252F
:1025900084F83850022084F839002068826822F0DC
:1025A000770222F47F4282600868502836D00DDC22
:1025B000202858D005DC80B3102840D150E00220FC
:1025C00070BD302852D0402839D13EE060282DD04F
:1025D00070280BD0B0F5805F03D0B0F5005F2ED12E
:1025E00010E02068816821F0070109E0CB68D1E99B
:1025F0000121206800F0ADFD2068816841F077017D
:1026000081601CE0CB68D1E90121206800F0A1FDC8
:102610002068816841F48041F2E71EE0CA68496899
:10262000206800F05FFE5021206806E0CA68496813
:10263000206800F068FE6021206800F094FD84F8B6
:102640003950002084F8380070BDCA684968206895
:1026500000F048FE40212068EFE700212068ECE709
:1026600010212068E9E720212068E6E73021206872
:10267000E3E7704770B50446006801694FF0000554
:10268000C943890715D4C168C943890711D4E91E14
:10269000016101202076206880698007204602D0F1
:1026A000FFF7E7FF04E000F0B3F8204600F048F938
:1026B000257620680169C943490717D4C168C94311
:1026C000490713D46FF004010161022020762068CD
:1026D000806910F4407F204602D0FFF7CAFF04E073
:1026E00000F096F8204600F02BF925762068016965
:1026F000C943090716D4C168C943090712D46FF04A
:1027000008010161042020762068C0698007204606
:1027100002D0FFF7AEFF04E000F07AF8204600F0A8
:102720000FF9257620680169C943C90617D4C16825
:10273000C943C90613D46FF0100101610820207647
:102740002068C06910F4407F204602D0FFF791FF57
:1027500004E000F05DF8204600F0F2F825762068ED
:102760000169C943C90708D1C168C943C90704D170
:10277000891E0161204600F001F920680169C94302
:10278000090609D4C168C943090605D46FF0800160
:1027900001612046FFF74FFE20680169C9434906E1
:1027A00009D4C168C943490605D46FF040010161ED
:1027B000204600F027FA20680169C94389060BD436
:1027C000C168C943890607D46FF020010161204622
:1027D000BDE87040FFF730BE70BD000000B5006876
:1027E000094985B088420CD1801400900220002154
:1027F000CDE901010321CDE9031069460348FFF744
:10280000E3F905B000BD000000080040000C0240E4
:10281000704770B5044690F838000D4601280DD079
:10282000012684F83860022084F8390042B1042A75
:1028300018D0082A2AD00C2A4DD139E0022070BDC8
:10284000206800F099FC2068816941F008018161ED
:102850002068816921F004018161206881692A6909
:10286000114311E0206800F0B3FC2068816941F455
:10287000006181612068816921F480618161206843
:1028800081692A6941EA0221816124E0206800F01F
:10289000D1FC2068C16941F00801C1612068C169AB
:1028A00021F00401C1612068C1692A69114311E066
:1028B000206800F0EFFC2068C16941F40061C1614B
:1028C0002068C16921F48061C1612068C1692A69F9
:1028D00041EA0221C16184F83960002084F838009F
:1028E00070BD10B5040003D094F8390010B107E0B2
:1028F000012010BD002084F83800204600F00CF8BC
:10290000022084F83900211D206800F0B7FB012067
:1029100084F83900002010BD08B5006806498842D7
:1029200008D10648016841F004010160006800F028
:102930000400009008BD000000080040403802403C
:102940007047000010B504460068012200F0F6FB55
:1029500008482168814202D00748814203D1486C6F
:1029600040F4004048642068016841F001010160C2
:10297000002010BD00000140000401402DE9F0419D
:102980008F492DED088B006888427CD18D490A2241
:10299000A1F59C70FEF70EFF8A4E708901F078F960
:1029A000894C41EC180B06F1180084ED0E8B25685C
:1029B00000EBC50797ED000B53EC102B94ED0C0BBF
:1029C00051EC100B01F082FA87ED008B53EC182BC1
:1029D00000F05EFF41EC100B84ED0C0B9FED7B8B48
:1029E00053EC182B00F0FCFF41EC100B84ED0A0BAC
:1029F0009FED789B53EC192B01F05EF99FED77BBAF
:102A000053EC1B2B01F062FA00F010FF606130897B
:102A100001F03EF941EC1A0B724884ED14AB00EB67
:102A2000C50797ED000B53EC102B94ED120B51ECF6
:102A3000100B01F04BFA87ED00AB53EC1A2B00F0B2
:102A400027FF41EC100B53EC182B84ED120B00F018
:102A5000C7FF41EC100B53EC192B84ED100B01F068
:102A60002BF953EC1B2B01F031FA00F0DFFEA061D3
:102A7000F08801F00DF941EC1A0B5B4884ED1AABBC
:102A800000EBC50700E096E097ED000B53EC102B30
:102A900094ED180B51EC100B01F018FA87ED00AB18
:102AA00053EC1A2B00F0F4FE41EC100B53EC182BF6
:102AB00084ED180B00F094FF41EC100B53EC192B34
:102AC00084ED160B01F0F8F853EC1B2B01F0FEF926
:102AD00000F0ACFEE061B08801F0DAF841EC1A0BCE
:102AE000424804F1800700EBC50887ED00AB98ED84
:102AF000000B53EC102B94ED1E0B51EC100B01F05E
:102B0000E5F988ED00AB53EC1A2B00F0C1FE41EC67
:102B1000100B53EC182B84ED1E0B00F061FF41EC01
:102B2000100B53EC192B84ED1C0B01F0C5F89FED35
:102B3000301B53EC112B01F0BDF900F077FE206241
:102B4000708801F0A5F841EC1A0B2B4887ED06AB15
:102B500000EBC50696ED000B53EC102B97ED040B24
:102B600051EC100B01F0B2F986ED00AB53EC1A2BCF
:102B700000F08EFE41EC100B53EC182B87ED040B8C
:102B800000F02EFF41EC100B53EC192B87ED020BDC
:102B900001F092F89FED191B53EC112B01F096F9FF
:102BA00000F044FE6D1C2560606240F6B83085423E
:102BB00001DB00202060BDEC088BBDE8F081000047
:102BC000002000403801002000000010000000003C
:102BD0000070A7402575029A081B8E3F7F6ABC745F
:102BE00093183E40105F0020D0BC0020901A0120B6
:102BF0007F6ABC7493183C40507801207F6ABC7493
:102C000093183F407047FEE77FB53A4838490124A2
:102C100001604FF4803100250461C0E90115364997
:102C20000562C0E90A150A26C560C0E906460463C4
:102C30004461FEF730FD00B1FEE7CDE9005469467E
:102C40002C480295FEF77EFC00B1FEE700940224BA
:102C5000694628480194FEF775FC00B1FEE7009430
:102C60000324694623480194FEF76CFC00B1FEE79B
:102C70000094042469461F480194FEF763FC00B1E8
:102C8000FEE7052569461B48CDE90045FEF75AFCDD
:102C900000B1FEE70624CDE9006469461548FEF759
:102CA00051FC00B1FEE700950725694611480195E2
:102CB000FEF748FC00B1FEE70094082469460D4881
:102CC0000194FEF73FFC00B1FEE70920CDE900507A
:102CD00069460848FEF736FC00B1FEE7CDE900463C
:102CE00069460448FEF72EFC002800D0FEE77FBDB1
:102CF00000200140000000200100000FF0B537481F
:102D000087B00024016841F010010160016801F002
:102D100010010591016841F080010160016801F036
:102D200080010591016841F004010160016801F032
:102D300004010591016841F001010160016801F0A1
:102D400001010591016841F002010160016801F093
:102D500002010591016841F0080101600068204E00
:102D600000F008004FF4F065059000222946304637
:102D7000FFF70FF81B4F0022FF213846FFF709F835
:102D80006020CDE90004694630460294FEF71CFF3E
:102D900000950125CDE90154694630460394FEF7BC
:102DA00013FF4FF47070CDE9000469460E48029499
:102DB000FEF70AFFFF200090CDE90154694638462E
:102DC0000394FEF701FFB020CDE9000469460748EF
:102DD0000294FEF7F9FE07B0F0BD00003038024063
:102DE00000100240000C02400008024000040240B3
:102DF00010B5124888B010490024C0E9001440F60C
:102E00003301C0E902410461FFF73FFB00B1FEE777
:102E10000A48FFF766FD00B1FEE76020CDE9000437
:102E200002940022694605480494FFF7F2FC00284A
:102E300000D0FEE708B010BD001C0040C00000201C
:102E400010B5124888B010490024C0E9001444F2BB
:102E5000A111C0E902410461FFF717FB00B1FEE7D1
:102E60000A48FFF73EFD00B1FEE76020CDE900040F
:102E700002940022694605480494FFF7CAFC002822
:102E800000D0FEE708B010BD00200040FC0000208C
:102E900010B516488AB014490024C0E9001440F661
:102EA0003301C0E902410461FFF71BFD00B1FEE7F9
:102EB000079407A90D480894FFF7BFFA00B1FEE791
:102EC0006020009041F28830CDE90104002269467B
:102ED00006480494FFF79DFC00B1FEE70348FFF7A6
:102EE0007DFC0AB010BD0000000800404800002032
:102EF0001FB50E480C494AF2394201600121416078
:102F00000021C0E902120161FFF7BFFA00B1FEE73C
:102F10004FF48050009069460448FFF732FB0028C8
:102F200000D0FEE71FBD00000040014084000020EB
:102F3000FEE770470907090E002806DA00F00F00C7
:102F400000F1E02080F8141D704700F1E02080F8C7
:102F5000001470477047704710B5FEF725FFBDE8B5
:102F60001040FFF764BA000030B5244893B0002544
:102F7000016841F080510160006800F080501190BC
:102F80001F48016841F4804101600068022400F498
:102F90008040119001200090000401908001CDE953
:102FA000064008AA0420A82182E813000B90684676
:102FB000FFF792F800B1FEE70CA90F2081E831007D
:102FC0004FF4A0500F904FF48050109005210CA8A2
:102FD000FEF78AFF00B1FEE7FFF740F84FF47A7181
:102FE000B0FBF1F0FFF70FFA0420FFF7FFF9002222
:102FF0001146501EFEF746FF13B030BD4038024068
:10300000007000401048016841F4700101600F48F1
:10301000016841F0010101600C4A00210832116091
:1030200002680B4B1A400260031D0A4A1A600268CC
:1030300022F48022026005480C30016002495806E3
:10304000803908607047000088ED00E000380240D9
:10305000FFFFF6FE103000240148FFF70BBB000015
:10306000840000200148FFF705BB0000FC000020A1
:103070000148FFF7FFBA0000C0000020F0B5026869
:10308000234D244E244FDFF894C0254B4FF0804E43
:10309000A84209D0704507D0B04205D0B84203D04D
:1030A000604501D0984203D122F070044A6822435F
:1030B000A8421BD0704519D0B04217D0B84215D0E5
:1030C000604513D0984211D0164CA0420ED0164C39
:1030D000A0420BD0154CA04208D0154CA04205D000
:1030E000144CA04202D0144CA04203D122F44074EC
:1030F000CA68224302608A68C2620A688262A84281
:1031000001D0984201D10969016301214161F0BDFB
:10311000000001400004004000080040000C004096
:1031200000040140004001400044014000480140CB
:1031300000180040001C00400020004010B5012392
:10314000046A8B409C430462036A8A40134303620F
:1031500010BD10B5846842EA032224F47F440A4378
:103160002243826010BD826822F070020A4342F05E
:10317000070181607047000030B5026A22F0010249
:103180000262056A426883690C6823F073031C437A
:103190008B6825F002052B430B4DA84202D00B4D46
:1031A000A8420BD123F00805CB6822F440722B43D0
:1031B0004D6923F0040315438A692A434260846100
:1031C00049684163036230BD0000014000040140D2
:1031D00030B5026A22F010020262036A4268846912
:1031E0000D6824F4E64444EA05248D6823F02003A6
:1031F00043EA05130D4DA84202D00D4DA8420ED151
:10320000CD6823F0800343EA05134D6922F4406240
:1032100042EA85028D6923F0400342EA850242605A
:10322000846149688163036230BD00000000014091
:103230000004014030B5026A22F480720262036A1F
:103240004268C46923F4007324F073050C682C43AE
:103250008D6843EA05230D4DA84202D00C4DA842CB
:103260000ED1CD6823F4006343EA05234D6922F4AF
:10327000405242EA05128D6923F4806342EA051246
:103280004260C4614968C163036230BD000001400F
:103290000004014030B5026A22F480520262036ADF
:1032A0004268C4690D6824F4E64444EA05248D6844
:1032B00023F4005343EA0533084DA84202D0084DD9
:1032C000A84204D14D6922F4804242EA851242604C
:1032D000C46149680164036230BD00000000014020
:1032E0000004014010B5046A036A23F0010303627D
:1032F000836923F0F00343EA021324F00A020A432D
:103300008361026210BD10B5036A23F010030362EB
:103310008469036A24F4704444EA023223F0A0036F
:1033200043EA01118261016210BDFEE7FEE703B4CA
:1033300001984100009850EAC12018BF04204A0DAE
:1033400018BF40F0010040F2FF72B2EB515F08BFBE
:1033500040F00200012808BF052002B07047303855
:103360000A2801D2012070470020704710B504469A
:10337000000900F09BF804F00F0000F097F8BDE89A
:103380001040322000F034BA10B50446000900F0B5
:10339000A3F804F00F0000F09FF8BDE810403220C1
:1033A00000F026BA10B5084C012204212046FEF791
:1033B000F0FC0A2000F01CFA20460022BDE8104074
:1033C0000421FEF7E6BC0000000C024070B50C467C
:1033D0000546002201210B48FEF7DBFC5CB1012C05
:1033E0000BD0022C0BD0032C0BD1D435E8B2BDE8A6
:1033F0007040FFF7BBBF8035F8E7C035F6E794357E
:10340000F4E770BD000C0240F0B585B0012403253F
:10341000002603950094244FCDE9014669463846BD
:10342000FEF7D2FB022003958DE85100694638462D
:10343000FEF7CAFB042003958DE851006946384623
:10344000FEF7C2FBF02003958DE85100694638462F
:10345000FEF7BAFB002202213846FEF79AFC00F084
:103460005BF82820FFF782FF4FF47A74204600F0C3
:10347000BFF90C20FFF77AFF204600F0B9F90620CB
:10348000FFF774FF204600F0B3F90120FFF76EFF4D
:103490006400204600F0ACF98020FFF767FF20466B
:1034A00000F0A6F905B0F0BD000C024010B50446CE
:1034B000002201210748FEF76CFC06491431086818
:1034C00020F0F00242EA04100860BDE81040FFF767
:1034D00069BF0000000C024010B5044601221146ED
:1034E0000748FEF756FC06491431086820F0F00240
:1034F00042EA04100860BDE81040FFF753BF000027
:10350000000C024010B5044602E0641CFFF73CFFCB
:1035100020780028F9D110BD194810B5016841F094
:10352000F0010160164C0122143C11462046FEF7C2
:1035300030FC012204212046FEF72BFC44F62060DB
:1035400000F056F90320FFF7B1FF43F6982000F092
:103550004FF90320FFF7AAFF41F28834204600F01C
:1035600047F90320FFF7A2FF204600F041F90220AF
:10357000FFF79CFF2046BDE8104000F039B900007D
:10358000140C02401CB5FEF717FCFFF7EDFCFFF72B
:10359000B5FB7848016841F48001016000680022B1
:1035A00000F48000009011463820FEF76BFC3820B4
:1035B000FEF75CFCFFF728FBFFF76AFCFFF798FCBF
:1035C000FFF716FCFFF73CFC6B490A22A1F59C7043
:1035D000FEF7F0F868483C38FEF7C7FF66487838D1
:1035E000FEF7C3FF6448F038FEF7B2FF62480021DF
:1035F000F038FFF7A7F9FFF707FFDFF88081604F8A
:10360000604CDFF884A14FF4807B40F2BE5910215A
:1036100045464046FEF7B8FB30B110212846FEF77C
:10362000B3FB012817D02EE0012280213846FEF797
:10363000B0FB012259463846FEF7ABFB00211220B1
:10364000FFF7C4FE51A0FFF75DFF01211220FFF735
:10365000BDFE4FA015E0002280213846FEF799FB01
:10366000002259463846FEF794FB00211220FFF74E
:10367000ADFE48A0FFF746FF01211220FFF7A6FE8E
:1036800044A0FFF73FFF00210846FFF79FFEA06917
:1036900000F006FD05460E46606800F001FD41ECB5
:1036A000100BCDE9005653EC102B3BA13F48FCF723
:1036B000E7FD3E48FFF726FF0A20FEF777FA0121D3
:1036C0000020FFF783FEE06900F0EAFC05460E46A5
:1036D000A06800F0E5FC41EC100B3448CDE9005641
:1036E00053EC102B32A1C830FCF7CAFD2F48C8306C
:1036F000FFF708FF0A20FEF759FA02210020FFF722
:1037000065FE206A00F0CCFC05460E46E06800F03D
:10371000C7FC41EC100BCDE9005653EC102B29A14E
:103720002D48FCF7ADFD2C48FFF7ECFE0A20FEF714
:103730003DFA03210020FFF749FE606A00F0B0FC6B
:1037400005460E46206900F0ABFC41EC100B224808
:10375000CDE9005653EC102B20A1C830FCF790FDAA
:103760001D48C830FFF7CEFE0A20FEF71FFACAF840
:1037700000904CE73038024038010020000402403D
:103780000010024000000010340800404F4E0000BE
:103790004F4E20004F46460056323A25322E3266B2
:1037A0002049323A25322E326600000010D6012020
:1037B00056333A25322E32662049333A25322E329C
:1037C0006600000056343A25322E32662049343ADB
:1037D00025322E3266000000A0D7012056353A254A
:1037E000322E32662049353A25322E3266000000EC
:1037F00000EB401101EBC010401EFDD270470000ED
:1038000010B500290AD00878002807D00548784468
:10381000FDF756F9002801D0002010BD0248784479
:1038200010BD00006A0A0000620A000021F0004298
:10383000A2F16052B2F5801F01F0004328BFD2F11F
:103840007F6C0BD95FEA001C43EAC20242EB507066
:1038500018BF704728BF20F001007047B2F5801FE5
:10386000BCBF184670474FEA410C1CF5001F02D23E
:10387000084600F08BBC70B500F0C8FA0000008963
:10388000FFF7F6BF4FF00040A0F580007047000042
:1038900010B591EA030F48BF83F0004300F11E8387
:1038A000841A71EB030C05D2121943EB0C03001BB5
:1038B00061EB0C01DFF824E14FEA1154A4EB135C37
:1038C0001EEA430F18BF9EEA445F73D023EA0E033B
:1038D000DCF1200E21EA045143F4801332D322FAA2
:1038E0000CFE10EB0E0023FA0CFE41EB0E01CCF1A6
:1038F000200E03FA0EFE10EB0E0051F10001B1F59F
:10390000801FCCF1200E32D201EB045112FA0EF2DC
:10391000BDE8104058BF7047401C38BF5FEA420204
:1039200018BF7047002814BF20F0010041F10001CA
:103930004FEA410313F5001F38BF7047A1F1C041A2
:1039400000F0B2BA012A43EB0302ACF1200CDCF127
:103950001F0E32BF4FF0000E23FA0CF310EB0300E2
:1039600041EB0451B4EB115FD0D0A1EB045101F550
:10397000801149085FEA300001EB04510ED350F189
:10398000000038BF12FA0EFE08D1BDE81040C9E7AA
:10399000401C38BF5FEA4202CAD1C3E7BDE810400D
:1039A0004FEA410313F5001F38BF7047A1F1C04132
:1039B00000F07ABA9EEA445F08D011EA5E0FBDE8D3
:1039C000104004BF01F0004100207047BDE81040E6
:1039D00070B500F01BFA00BF64FBBE3E0000E0FFC4
:1039E0002DE9C04130B4DFF8A0C23CEA111418BF81
:1039F0003CEA131400F0EC8081EA03051CEA111480
:103A000044EAD57418BF1CEA131500F0C780A4EB74
:103A100005044FF0004545EAC12145EAC32341EAC8
:103A2000505143EA525304F17F74994204F5003433
:103A30004FEAC0204FEAC22208BF904200F09C80AB
:103A40004FEA13650FF24016765D4FEA134506FB09
:103A500005F7C7F1807706FB07F74FEAD737A7FBD3
:103A600003687642C8F58038A7FB06CE38BFA8F1B8
:103A7000010807FB08E64FF0000EA6FB028CE6FBF0
:103A800003CEDCF1000CCEF1004E38BFAEF1010EDA
:103A9000A6FB0C584FF000074FF00005E6FB0E8721
:103AA000A1FB08C6A0FB07CE16EB0E0645F10005EC
:103AB000E1FB076515F1E04E7EBFA4F580345FEAB7
:103AC00046066D4116F1800745F100054FEA1727BC
:103AD0004FEA066647EA0567A6F1DE46B6F1805F63
:103AE0004FEA15251FD9384624F0010C05EBC471A7
:103AF000BCF1FE6F01EB0C1102D8F0BCBDE80081F7
:103B000024425CBF01F5801E9EEAC47F02D4F0BC53
:103B1000BDE80081244238D4F0BCA1F1C041BDE829
:103B2000004100F0C1B94FEAD22242EA43524FEAC3
:103B3000D323A7FB02864FEAD02040EA415007FB7F
:103B400003661EEA0E0F4FEAD12105FB026658BF3D
:103B5000A6EB0056B6EB00564FEA520E4EEAC37E75
:103B600018EB0E0E56EB530EBDD518EB02085E4156
:103B70007F1C55F10005B6E74FF480154FF00007A4
:103B80004FF000064FF00008ADE7F0BC4FF000002A
:103B900001F1C04101F00041BDE8008111EA0C1FB4
:103BA0000CEA131500D00CE013EA0C1F00F025807E
:103BB0004FF00000F0BC81EA030101F00041BDE8D4
:103BC0000081F0BCBDE8004181EA030100F06CB95E
:103BD000F0BCBDE8004170B500F018F9097EFC3E6C
:103BE00000F007B881EA03014FF0000001F0004146
:103BF000704781EA030100F057B9F0BCBDE800410D
:103C00004FF0000021497047FFFDFBF9F7F5F4F292
:103C1000F0EEEDEBE9E8E6E4E3E1E0DEDDDBDAD867
:103C2000D7D5D4D3D1D0CFCDCCCBCAC8C7C6C5C4C5
:103C3000C2C1C0BFBEBDBCBBBAB9B8B7B6B5B4B3DC
:103C4000B2B1B0AFAEADACABAAA9A8A8A7A6A5A4C7
:103C5000A3A3A2A1A09F9F9E9D9C9C9B9A9999988B
:103C60009797969595949393929191908F8F8E8E2E
:103C70008D8C8C8B8B8A89898888878786858584BB
:103C800084838382828181800000FF070000F87FA7
:103C9000B0FA80F310FA03F10AD0C3F11D0303F563
:103CA00080634FEA41504FEA035202EBD121704743
:103CB0004FF0000070470000DFF848C170B51CEA03
:103CC000111E1EBF1CEA13159EEA0C0F95EA0C0F7D
:103CD00000F06F8081EA030423EA4C134EEAD47E9D
:103CE00021EA4C1141F4801143F48013AE44A1FB4E
:103CF000024CA0FB0365AEF17F7E361955EB0C0537
:103D0000A1FB034C4CF10003A0FB021C16EB0C06BC
:103D1000654153F10003094218BF46F0010613F450
:103D2000007F0BD14FEA03314FEA0530340341EAFB
:103D3000155140EA16506FF003020AE04FEAC32122
:103D40004FEAC520F40241EA555140EA56506FF05F
:103D5000020202EB2E4201EB025585EACE710AD037
:103D60005FEA440C18BF24F0004450F1000041F118
:103D7000000120EAD47040F2FE7C624500D270BDA2
:103D8000A84214BF4FF080444FF04044002E08BFBB
:103D90000024BEF1806FA8BFA1F1C041BDE8704012
:103DA00080F282804FF0000001F1C04101F000413B
:103DB00070479EEA0C0F0CEA131518BF95EA0C0F1A
:103DC00006D04FF0000081EA030E0EF0004170BDF6
:103DD00000F01CF88900013E00F007B800F009B8B7
:103DE0004FEA430C5FEA5C5C08D081EA030100F013
:103DF0005BB84FEA410C5FEA5C5CF6D14FF0000023
:103E0000014970470000FF070000F87F0EF1020E25
:103E10002EF0030E5EF8046B364205D4012A43EB04
:103E2000030515F5001F12D8012841EB010C1CF504
:103E3000001F0CD80ED14FEAD17C15F5001F0CEBFA
:103E40004C0C0CF1020C08BF4CEBD37C04E04FF09F
:103E5000080C01E04FEAD37C0CEB4C0526FA05F682
:103E600006F00706B6F1040C06D20EEB860CBDE890
:103E700070404CF0010C6047DFE80CF0090B0202C7
:103E80004FF000414FF00000A1F5002170BD194630
:103E90001046012851EB010418BFD4F5001484BF6B
:103EA000002001F0004170BD0808A0F500114FEAA4
:103EB0003101704791EA030F10B581F000413FF5E1
:103EC000EFAC83F0004300F009B8000010B591EAB0
:103ED000030F48BF83F000433FF5E2AC841A71EB57
:103EE000030C07D212198CF0004C43EB0C03001B9F
:103EF00061EB0C01DFF8A4E14FEA1154A4EB135C71
:103F00001EEA430F18BF9EEA445F00F0B08023EA28
:103F10006E03524221EA0451C3EB6E0338BF5B1EAD
:103F2000DCF1200E25D322FA0CFE10EB0E0043FA32
:103F30000CFE41EB0E01CCF1200E03FA0EFE10EB4D
:103F40000E0051F10001CCF1200E29D412FA0EF22C
:103F500001EB0451BDE8104058BF7047401C1CBF26
:103F6000B2F1004F704700280CBF491C20F001003F
:103F7000704712EB020E43EB030218BF4FF0010E25
:103F80004EEA4202ACF1200CDCF11E0E54D943FA89
:103F90000CFE10EB0E0051F1FF31CCF11E0ED5D509
:103FA0000EF1010E12FA0EFE404141EB010101EB50
:103FB000445C5FEA5C5C10D910EBDE7001EB0451ED
:103FC00038BFBEF1004FBDE8104018BF7047002851
:103FD0000CBF491C20F00100704730D24FEAD42CAE
:103FE00011F5001124F400641BD0B1FA81F20B3AF0
:103FF000A41AA41ED2F12003914030FA03F319430E
:10400000904001EBCC71002C01EB0451BDE8104055
:10401000A8BF704701F1C0414FF0000001F000411E
:104020007047B0FA80F310FA03F100D110BDE41A22
:10403000173C4805C90AE4E701EB045110BD4910DB
:1040400001EB0451BDE810404FEA300002E04FF0B0
:10405000000170474A0008BF0042F8D0B2F5001FC7
:1040600028BF704701F000414FF0000070479EEA02
:10407000445F07D011EA5E0FBDE8104004BF002185
:1040800000207047BDE8104070B5FFF7BFFE00BFCD
:1040900040DFF63E83F00041104670470000E0FF2D
:1040A00043004FEAD30C4FEA3C0C43401FBF40078C
:1040B0000CF1605113F0FE4F70471CF0006F03D1FC
:1040C00000200CF0004170470CF0004343EA5070B0
:1040D00010B540EACC0000F00EF800BF00000092DE
:1040E0004FEA0001FFF7E0BE4FF000414FF0000043
:1040F000A1F5002170470EF1020E2EF0030E5EF8BE
:10410000044B244204D44FEA4102B2F17F4F11D84C
:104110004FEA4003B3F17F4F0CD80ED14FEAD07C69
:10412000B2F17F4F0CEB4C0C0CF1020C08BF4CEBC6
:10413000D17C04E04FF0080C01E04FEAD17C0CEB9D
:104140004C0324FA03F404F00704B4F1040C06D27F
:104150000EEB840CBDE810404CF0010C6047DFE82A
:104160000CF0070802024FF00040A0F5800010BDDF
:104170000846420018BFD2F1807288BF00F00040AC
:1041800010BD4FF04070E1EE100A7047FF2141EA88
:10419000D050C0057047FCF711BA00061016000693
:1041A00010160000000000000000010203040607D2
:1041B0000809000002400000000000A0000000000C
:1041C00005400000000000C8000000000C40000096
:1041D0000000409C00000000194000000020BCBE10
:1041E0000000000034400000BFC91B8E0000000426
:1041F000B5400000504BCFD06607E2CF0100000071
:104200006C4100003E8251AADFEEA734010000009D
:10421000D9420000DCB5A0E23A301F97FFFFFFFF54
:10422000B4450000FD25A0C8E9A3C14FFFFFFFFF73
:10423000FF3F00000000008000000000FF3F000082
:104240000000008000000000944200080000001000
:10425000A8000000C40100089442000800000020EB
:1042600030D90100E00100083C430008A80000101C
:10427000C0060000E00100081C0000004300000030
:10428000F8FFFFFF0C0000000E0000000F00000010
:104290002E000000000000000000000000000000F0
:1042A000000000000000000000000000000000000E
:1042B00000000000000000000000000000000000FE
:1042C00000000000000000000000000000000000EE
:1042D00000000000000000000000000000000000DE
:1042E00000000000000000000000000000000000CE
:1042F00000000000000000000000000000000000BE
:1043000000000000000000000000000000000000AD
:10431000000000000000000000000000000000009D
:10432000000000000000000000000000000000008D
:0C43300000000000000000000024F40069
:040000050800018965
:00000001FF
